:100000000C94C7010C94E4010C94E4010C94E401F9
:100010000C94E4010C94E4010C94E4010C94E401CC
:100020000C94E4010C94E4010C94E4010C94E401BC
:100030000C94E4010C94E4010C94E4010C94E401AC
:100040000C94E4010C94E4010C94E4010C94E4019C
:100050000C94EC010C94E4010C94E4010C94E40184
:100060000C94E4010C94E4010C94E4010C94E4017C
:100070000C94E4010C94E4010C94E4010C94E4016C
:100080000C94E4010C94E4010C94E4010C94E4015C
:100090000C94E4010C94E4010C94E4010C94E4014C
:1000A0000C94E4010C94E4010C94E40100000000C1
:1000B0000000005F00000007000700147F147F1499
:1000C000242A7F2A122313086462364955225000DD
:1000D00005030000001C2241000041221C001408FE
:1000E0003E081408083E08080050300000080808C0
:1000F0000808006060000020100804023E514945D5
:100100003E00427F400042615149462141454B310A
:100110001814127F1027454545393C4A494930019A
:10012000710905033649494936064949291E0036F1
:100130003600000056360000081422410014141442
:100140001414004122140802015109063249794170
:100150003E7E1111117E7F494949363E414141227F
:100160007F4141221C7F494949417F090909013EDC
:100170004149497A7F0808087F00417F41002040BB
:10018000413F017F081422417F404040407F020CE4
:10019000027F7F0408107F3E4141413E7F090909EB
:1001A000063E4151215E7F09192946464949493198
:1001B00001017F01013F4040403F1F2040201F3F81
:1001C0004038403F63140814630708700807615102
:1001D000494543007F41410002040810200041418D
:1001E0007F0004020102044040404040000102043C
:1001F0000020545454787F484444383844444420C0
:10020000384444487F3854545418087E0901020C7D
:100210005252523E7F0804047800447D4000204042
:10022000443D007F1028440000417F40007C0418BA
:1002300004787C0804047838444444387C1414144A
:1002400008081414187C7C080404084854545420EA
:10025000043F4440203C4040207C1C2040201C3C6B
:100260004030403C44281028440C5050503C4464DA
:10027000544C44000836410000007F000000413625
:100280000800100808100878464146786E616E0034
:10029000696E660000407A10F35A00A0724E180989
:1002A0000010A5D4E80000E87648170000E40B54DD
:1002B000020000CA9A3B000000E1F50500008096AC
:1002C0009800000040420F000000A08601000000DE
:1002D000102700000000E803000000006400000098
:1002E00000000A00000000000100000000002C7661
:1002F000D888DC674F0823DFC1DFAE59E1B1B7967C
:10030000E5E3E453C63AE651997696E8E6C28426D8
:10031000EB898C9B62ED407C6FFCEFBC9C9F40F2B4
:10032000BAA56FA5F490055A2AF75C936B6CF96730
:100330006DC11BFCE0E40D47FEF520E6B500D0EDF5
:10034000902E0300943577050080841E080000205D
:100350004E0A000000C80C333333330F986E1283FB
:100360001141EF8D2114893BE65516CFFEE6DB18CF
:10037000D1844B381BF77C1D901DA4BBE424203294
:1003800084725E228100C9F124ECA1E53D2711248D
:100390001FBECFEFDAE0DEBFCDBF11E0A0E0B1E0DD
:1003A000E8E5F9E202C005900D92A238B107D9F74D
:1003B00016E0A2E8B1E001C01D92AB3AB107E1F747
:1003C0000E94AB0A0C94AA140C9400005198279830
:1003D00021985098209808951F920F920FB60F926F
:1003E00011248F939F93AF93BF938091900190912D
:1003F0009101A0919201B09193010196A11DB11DAF
:100400008093900190939101A0939201B0939301F6
:10041000BF91AF919F918F910F900FBE0F901F9042
:1004200018958F929F92AF92BF92CF92EF920F93B7
:100430001F93B9E48B2EB3E09B2EC40140E050E043
:1004400068E272E400E010E024E332E4A3E0EA2E84
:10045000F2E0CF2EE2E6AE2EE1E0BE2E0E94F10BDE
:1004600080E090E0A0E0B0E08093550390935603C5
:10047000A0935703B09358038AE999E9A9E9BEE329
:100480008093510390935203A0935303B09354036A
:10049000C4010E94190C1F910F91EF90CF90BF9053
:1004A000AF909F908F9008954F925F926F927F923E
:1004B0008F929F92AF92BF92CF92EF920F931F9322
:1004C000DF93CF93CDB7DEB72A970FB6F894DEBF90
:1004D0000FBECDBFDE011196E8E6F1E08AE00190A3
:1004E0000D928150E1F73E010894611C711C10EEE1
:1004F000812E12E0912EBBE04B2E512C4C0E5D1E36
:10050000F301619171913F01882777FD8095982FC4
:100510000E94E910AB01BC01C40100E010E020E73B
:1005200031ECA3E0EA2EF3E0CF2EE5E6AE2EE1E0DB
:10053000BE2E0E94F10BC4010E94190C85E190E0CF
:10054000880E991E64147504D9F62A960FB6F8948D
:10055000DEBF0FBECDBFCF91DF911F910F91EF9006
:10056000CF90BF90AF909F908F907F906F905F9053
:100570004F9008958F929F92AF92BF92CF92EF9239
:100580000F931F93B7EB8B2EB2E09B2EC40140E07C
:1005900050E060E470E400E010E020E83FE3A3E016
:1005A000EA2EF3E0CF2EE2E7AE2EE1E0BE2E0E946F
:1005B000F10BC4010E94190C1F910F91EF90CF9085
:1005C000BF90AF909F908F900895EF92FF920F93FE
:1005D0001F93E0908C01F0908D0100918E0110919D
:1005E0008F01C801B70120E030E040E85FE30E94DE
:1005F000B2108823D4F489B1869580FF16C060912B
:10060000BB027091BC028091BD029091BE0220E0BD
:1006100030E040E45FE30E944D106093BB027093B2
:10062000BC028093BD029093BE02C801B70120E0D6
:1006300030E040E050E00E94991118167CF583B13B
:10064000869580FF14C080E090E0A0E0B0E0809349
:10065000B7029093B802A093B902B093BA02809304
:10066000880190938901A0938A01B0938B01489BE4
:100670005FC080E090E0A0E0B0E08093B70290938C
:10068000B802A093B902B093BA0280938801909304
:100690008901A0938A01B0938B014AC083B18695EA
:1006A00080FF22C06091B7027091B8028091B902B8
:1006B0009091BA022DEC3CEC4CEC5EE30E944D10A4
:1006C0006093B7027093B8028093B9029093BA0214
:1006D00080E090E0A0E0B0E080938C0190938D01E9
:1006E000A0938E01B0938F01489B22C06091B70206
:1006F0007091B8028091B9029091BA022DEC3CEC55
:100700004CEC5EE30E944E106093B7027093B80207
:100710008093B9029093BA0280E090E0A0E0B0E04C
:1007200080938C0190938D01A0938E01B0938F01E3
:10073000E0908801F090890100918A0110918B016D
:10074000C801B70120E030E040E050E00E94B21064
:10075000882381F460918C0170918D0180918E01CC
:1007600090918F0120E030E040E050E00E94B21014
:10077000882371F16091B7027091B8028091B9023B
:100780009091BA02A80197010E944E106093B7029F
:100790007093B8028093B9029093BA026091BB0241
:1007A0007091BC028091BD029091BE0220918C019B
:1007B00030918D0140918E0150918F010E944E1019
:1007C0006093BB027093BC028093BD029093BE0203
:1007D000E090B702F090B8020091B9021091BA020D
:1007E000C801B70120E030E04EE952E40E949911BF
:1007F000181654F0C801B70120E030E040E050E0A6
:100800000E94B21018165CF00E94BA028091570143
:100810009091580101979093580180935701E0906F
:10082000BB02F090BC020091BD021091BE02C80153
:10083000B70120E030E044E352E40E94991187FFC1
:100840000AC0C801B70120E030E040E050E00E945B
:10085000B21018165CF00E94BA0280915701909174
:1008600058010197909358018093570160918C0132
:1008700070918D0180918E0190918F0120E030E088
:1008800040E050E00E949911181614F41092830170
:100890001F910F91FF90EF9008958F929F92AF92CA
:1008A000BF92CF92DF92EF92FF920F931F93CF935D
:1008B000DF93CAE3D2E088249924F401E45EFD4F7B
:1008C00020813181B901660F771F620F731F660F98
:1008D000771F660F771F882777FD8095982F0E94D6
:1008E000E9106B017C01F401EE5EFD4F60817181C6
:1008F000B3E0660F771FBA95E1F7882777FD8095FB
:10090000982F0E94E9108B019C01CE01B701A6012E
:10091000AAE0EA2EF2E0CF2EE5E7AE2EE1E0BE2E11
:100920000E94F10BCE010E94190C82E090E0880E2B
:10093000991E65969AE08916910409F0BECFC7EB1F
:10094000D3E088249924F401E25AFC4F20813181BC
:10095000B901660F771F620F731F660F771F660F4F
:10096000771F882777FD8095982F0E94E9106B01EB
:100970007C01F401EA58FC4F60817181B3E0660F9D
:10098000771FBA95E1F7882777FD8095982F0E9409
:10099000E9108B019C01CE01B701A601AAE0EA2E65
:1009A000F2E0CF2EE9E7AE2EE1E0BE2E0E94F10B81
:1009B000CE010E94190C82E090E0880E991E659687
:1009C00098E18916910409F0BECFDF91CF911F9174
:1009D0000F91FF90EF90DF90CF90BF90AF909F90DE
:1009E0008F90089584E190E06AE070E040E051E08B
:1009F00021E00E945C0B86E190E064E170E04AE057
:100A000051E021E00E945C0B82E090E064E270E043
:100A100043E151E021E00E945C0B089584E190E005
:100A20006AE070E044E251E021E00E945C0B86E164
:100A300090E064E170E04AE051E021E00E945C0B4C
:100A400082E090E064E270E043E151E021E00E9446
:100A50005C0B0895AF92BF92CF92DF92EF92FF921C
:100A60000F931F938FB182958695877080FF09C081
:100A70008091940191E001C089277D99FDCF8093F9
:100A8000940180919401882309F05AC0A0905103E9
:100A9000B0905203C0905303D0905403C601B501E7
:100AA0002091490330914A0340914B0350914C03EC
:100AB0000E944E107B018C016093490370934A039E
:100AC00080934B0390934C0380E090E0A0E0B0E073
:100AD0008093550390935603A0935703B093580304
:100AE000C801B7010E949D110E94B61077FD03C096
:100AF000623571052CF180E090E0A0E0B0E08093D9
:100B0000550390935603A0935703B0935803C8011D
:100B1000B701A60195010E944D106093490370939F
:100B20004A0380934B0390934C03D601C501B05800
:100B30008093510390935203A0935303B0935403B3
:100B40001F910F91FF90EF90DF90CF90BF90AF90EB
:100B500008953F924F925F926F927F928F929F92F1
:100B6000AF92BF92CF92DF92EF92FF920F931F93BB
:100B7000DF93CF93CDB7DEB728970FB6F894DEBFDB
:100B80000FBECDBF48A059A06AA07BA08C8D9D8DC3
:100B9000AE8DBF8D8D839E83AF83B8878CA49DA4BB
:100BA000ADA8BEA8CFA8D8AC89A99AA9ABA9BCA961
:100BB00089839A83AB83BC8322963FAC2297C3017F
:100BC000B2010E949D110E94B6107B018C012396F8
:100BD0006FAD239770E0882777FD8095982F0E944E
:100BE000E9109B01AC01C601B5010E944E100E94A4
:100BF000B6106E157F050CF462C0C601B5010E94E7
:100C00009D110E94B6107B018C01692D70E0882730
:100C100077FD8095982F0E94E9109B01AC01C301DC
:100C2000B2010E944E100E94B6106E157F050CF4A2
:100C300046C06D817E818F8198850E949D112B0118
:100C40003C0169817A818B819C810E949D115B01AD
:100C50006C01682D70E0882777FD8095982F0E94A1
:100C6000E9109B01AC01C301B2010E944E100E9429
:100C7000B6107B018C01C601B5010E94B610E616C4
:100C8000F706ECF09924632D70E0882777FD8095B6
:100C9000982F0E94E9109B01AC01C601B5010E948A
:100CA0004E100E94B6107B018C01C301B2010E945C
:100CB000B610E616F70624F09924939401C09924FF
:100CC000892D28960FB6F894DEBF0FBECDBFCF9109
:100CD000DF911F910F91FF90EF90DF90CF90BF9029
:100CE000AF909F908F907F906F905F904F903F90CC
:100CF00008958F929F92AF92BF92CF92DF92EF9220
:100D0000FF920F931F93DF93CF93CDB7DEB7AEA0C3
:100D1000BFA08CA19DA19C018901CC24DD242FE0E2
:100D200030E02C0F3D1F49012EC078018DB79EB7D2
:100D30008A970FB6F8949EBF0FBE8DBF2DB73EB7F2
:100D40002F5F3F4FD901F40185E101900D92815051
:100D5000E1F7D9015596F80185E101900D92815096
:100D6000E1F70E94A9050B5E1F4F2DB73EB7265D28
:100D70003F4F0FB6F8943EBF0FBE2DBF882341F4FE
:100D80000894C11CD11CCA14DB047CF2EE24FF249D
:100D9000C701CF91DF911F910F91FF90EF90DF90EE
:100DA000CF90BF90AF909F908F900895AF92BF92D9
:100DB000CF92EF920F931F93CF93DF938091840094
:100DC000909185000E949A128EE893E040E050E0F6
:100DD00060E070E000E010E020E031E4AAE0EA2EFC
:100DE000F2E0CF2EE9E7AE2EE1E0BE2E0E94F10B3D
:100DF0008EE893E00E94190CCEE5D3E00E94951294
:100E000066E070E00E94E61101968993999383E071
:100E1000C637D80799F7C6E7D3E00E94951266E077
:100E200070E00E94E61101968993999383E0CE3891
:100E3000D80799F7CCE1D2E00E94951266E070E005
:100E40000E94E61101968993999382E0C632D807F1
:100E500099F7C2E1D2E00E94951266E070E00E942C
:100E6000E61101968993999382E0CC31D80799F7DE
:100E7000DF91CF911F910F91EF90CF90BF90AF90E6
:100E8000089580E88093610081E0809361008FE3A2
:100E90000E94B30B04C00E940E050E947F0B7E9B34
:100EA000FACF0E94BA0A0E94E6010E94BA020E948A
:100EB00011020E94D6060E9454020E947F0B0895E0
:100EC000CF92DF92EF92FF920F931F938DB79EB751
:100ED00008970FB6F8949EBF0FBE8DBFEDB7FEB753
:100EE000319613EAC12E13E0D12EADB7BEB71296DC
:100EF000DC92CE92119704E110E0138302838EE21C
:100F000091E09583848380918401909185019783FA
:100F100086830E94BF13EDB7FEB73196B3EAEB2E7E
:100F2000B2E0FB2EADB7BEB71296FC92EE921197CF
:100F30001383028388E391E0958384838091590130
:100F400090915A012091860130918701821B930B69
:100F5000978386830E94BF13EDB7FEB731960CECE2
:100F600012E0ADB7BEB712961C930E93119782E0B4
:100F700090E09383828386E491E0958384838091DB
:100F8000570190915801978386830E94BF138DB7B4
:100F90009EB708960FB6F8949EBF0FBE8DBF88E12E
:100FA00090E060E070E040E551E021E00E945C0BE1
:100FB00081E090E06AE070E0A60121E00E945C0B15
:100FC00081E090E064E170E0A70121E00E945C0B09
:100FD00081E090E06EE170E0A80121E00E945C0BEE
:100FE0000E947F0B1F910F91FF90EF90DF90CF90A9
:100FF00008956F927F928F929F92AF92BF92CF92FD
:10100000DF92EF92FF920F931F93CF93DF930E9493
:10101000BA0A8091570190915801181619060CF0E0
:1010200082C2189B09C00E94BA0A02C00E946007CF
:101030001899FCCF0E947F0B2DB73EB72A52304043
:101040000FB6F8943EBF0FBE2DBF2F5F3F4FD901A3
:10105000E7EBF2E085E101900D928150E1F7D901D3
:101060005596EEE8F3E085E101900D928150E1F7AD
:101070000E94A905ADB7BEB79A960FB6F894BEBF49
:101080000FBEADBF882371F180E090E0A0E0B0E03A
:101090008093C3029093C402A093C502B093C6028A
:1010A00080918401909185010196909385018093B0
:1010B00084010CEE12E0C0E0D0E055E1652E712C09
:1010C00047EB842E43E0942E3CE0A32EB12C0F2E50
:1010D000F0E0CF2EF0E0DF2EF0E0EF2EF0E0FF2E7C
:1010E000F02DF7C0EDB7FEB779970FB6F894FEBFB5
:1010F0000FBEEDBF3196EF01A7EBB2E085E10D9099
:1011000009928150E1F787EB93E0968B858B8CE019
:1011100090E0908F878B0E9479062DB73EB7275EAF
:101120003F4F0FB6F8943EBF0FBE2DBF892B81F005
:1011300080E090E0A0E0B0E08093C3029093C4020E
:10114000A093C502B093C60281E080938301A8CF2B
:101150008DB79EB749970FB6F8949EBF0FBE8DBF4F
:10116000EDB7FEB73196EF01A7EBB2E085E10D9048
:1011700009928150E1F780EE92E0968B858B85E0B5
:1011800090E0908F878B0E947906ADB7BEB75996D5
:101190000FB6F894BEBF0FBEADBF892B31F5EDB7CA
:1011A000FEB779970FB6F894FEBF0FBEEDBF31962C
:1011B000EF01A7EBB2E085E10D9009928150E1F7D4
:1011C0008AE392E0968B858B85E090E0908F878B09
:1011D0000E9479062DB73EB7275E3F4F0FB6F894B1
:1011E0003EBF0FBE2DBF892B61F00E94BA028091D5
:1011F000570190915801019790935801809357019E
:1012000058CF8DB79EB78A970FB6F8949EBF0FBE82
:101210008DBF2DB73EB72F5F3F4FD901E7EBF2E00F
:1012200085E101900D928150E1F7D9015596E9E4ED
:10123000F3E085E101900D928150E1F70E94A9054C
:10124000ADB7BEB79A960FB6F894BEBF0FBEADBF8E
:10125000882321F10E94BA02809157019091580190
:101260000296909358018093570180E090E0AAE79E
:10127000B4E48093490390934A03A0934B03B09343
:101280004C0380E090E0A8ECB2E480934D0390938F
:101290004E03A0934F03B09350030BCF6091BB025A
:1012A0007091BC028091BD029091BE0220915B01C1
:1012B00030915C0140915D0150915E010E944E10A1
:1012C0006093BB027093BC028093BD029093BE02F8
:1012D000F0CEEDB7FEB779970FB6F894FEBF0FBE0C
:1012E000EDBF4DB75EB74F5F5F4FC69DF001C79D25
:1012F000F00DD69DF00D11249A01E052FD4F85E1CD
:101300000190D9010D929D018150D1F7FA01968A81
:10131000858AB08EA78A0E9479062DB73EB7275ED0
:101320003F4F0FB6F8943EBF0FBE2DBF892B31F053
:10133000D801CD92DD92ED92FC92139721960B5E2F
:101340001F4FC530D10529F624EEA22E22E0B22E81
:1013500000E010E095E1892E912C87EBC82E83E008
:10136000D82EBCE0EB2EF12CEDB7FEB779970FB677
:10137000F894FEBF0FBEEDBFADB7BEB71196089D86
:10138000F001099DF00D189DF00D1124ED01E052C2
:10139000FD4F85E1019009928150E1F75696DC926C
:1013A000CE9255975896FC92EE9257970E947906E6
:1013B0002DB73EB7275E3F4F0FB6F8943EBF0FBE26
:1013C0002DBF892BA1F4D5016D917D918D919C91BB
:1013D00020915B0130915C0140915D0150915E0173
:1013E0000E944E10F50160837183828393830F5FA7
:1013F0001F4F25E130E0A20EB31E0530110509F0A4
:10140000B3CF1F9B4FC020918601309187012530BB
:1014100031050CF047C085E190E0289F7001299FBD
:10142000F00C389FF00C112485E991E0E80EF91ECC
:101430006091B7027091B8028091B9029091BA029E
:101440000E94B610882777FD8095982F0E94E9109A
:101450005B016C016091BB027091BC028091BD0286
:101460009091BE020E94B610882777FD8095982F34
:101470000E94E9108B019C01C701B601A501A3E000
:10148000EA2EF2E0CF2EEFE5AE2EE1E0BE2E0E9476
:10149000F10B8091860190918701019690938701CD
:1014A000809386010E94D6060E94E5020E942A05CA
:1014B000E8EEF2E080E090E0A0E0B0E08483958385
:1014C000A683B78380839183A283B383759623E039
:1014D000E135F20799F787EB92E00E94190C89E455
:1014E00093E00E94190C0E944D0400EE12E0C80126
:1014F0000E94190C0B5E1F4F33E009341307B9F734
:10150000C5E9D1E000E010E006C0CE010E94190C50
:101510000F5F1F4F65968091860190918701081794
:1015200019079CF307C081E0809382010E94BA0AE8
:101530000E94F2040E947F0BDF91CF911F910F91C7
:10154000FF90EF90DF90CF90BF90AF909F908F90E3
:101550007F906F9008950E944107809182018823B7
:1015600031F07E9BFACF109282010E94BA0A0E944B
:10157000F907F3CFE3EBF4E0119286E0EB3AF807DA
:10158000D9F708959C0197FD37C077FD35C08435A4
:10159000910594F5603371057CF5CB0153E0959589
:1015A00087955A95E1F76770442399F0E4E58E9F9B
:1015B000F0011124E20FF31FED54FB4F81E090E0A6
:1015C00002C0880F991F6A95E2F72081282B20839B
:1015D0000895E4E58E9FF0011124E20FF31FED540E
:1015E000FB4F81E090E002C0880F991F6A95E2F7F7
:1015F000809520812823208308955F926F927F92A7
:101600008F929F92AF92BF92CF92DF92EF92FF9212
:101610000F931F93CF93DF934B01522E25E0429FF0
:10162000A0011124ECE0EE2EE0E0FE2EE40EF51E0B
:101630008C0171E0672E712C61E1A62E60E0B62E60
:10164000A40EB51EF7018491552009F48095C0E0E1
:10165000D0E0C82EDD24BE01680D791DA3010C2E3B
:1016600002C0440F551F0A94E2F74C215D210C2E55
:1016700002C0559547950A94E2F7C8010E94C20A34
:101680002196C830D10539F70894E11CF11C0F5F91
:101690001F4FEA14FB04B1F6DF91CF911F910F9118
:1016A000FF90EF90DF90CF90BF90AF909F908F9082
:1016B0007F906F905F900895DF92EF92FF920F936B
:1016C0001F93CF93DF937B01EA01D22E082F10E006
:1016D00008C0802F90E0B7012D2D0E94FD0A0B5FFE
:1016E0001F5FFE01E10FF11D4081442391F7DF915F
:1016F000CF911F910F91FF90EF90DF900895CF93BE
:10170000DF9380E060E00E94E40BC3EBD4E081E073
:1017100069910E94920B86E0CB3AD807C1F7DF911E
:10172000CF91089595B18295880F807E9F7D982BEB
:1017300095B95F9827E030E070E08F98CB01022EDA
:1017400002C0959587950A94E2F780FF02C02E9A11
:1017500001C02E988F9A215030408FEF2F3F3807CD
:1017600061F75F9A08951F93182F579A249A259A24
:10177000269A879A2C985F9A2C9A80E061E20E94C0
:10178000920B106880E0612F0E94920B80E064E071
:101790000E94920B80E063E10E94920B80E06CE07B
:1017A0000E94920B80E060E20E94920B80E06CE06D
:1017B0000E94920B80E060E40E94920B80E060E85F
:1017C0000E94920B1F9108951F93182F606480E070
:1017D0000E94920B106880E0612F0E94920B1F9173
:1017E0000895AF92BF92CF92EF920F931F93FC0197
:1017F00040835183628373830483158326833783F5
:10180000E08AC18AB48AA38A81E0828B80E090E07A
:10181000A0E0B0E080879187A287B387848795870F
:10182000A687B7871F910F91EF90CF90BF90AF9091
:1018300008952F923F924F925F926F927F928F9274
:101840009F92AF92BF92CF92DF92EF92FF920F934F
:101850001F93CF93DF938C01DC0152968C915297AA
:10186000882309F480C06D917D918D919C910E9497
:101870009D110E94B6103B01F801248135814681FB
:101880005781643571050CF06EC0D80150968C916B
:10189000C82FD0E0CE01860D971D181619060CF042
:1018A00062C0CA01B9010E949D110E94B6104B018D
:1018B000603371050CF057C0F80181899401280F3D
:1018C000311D121613060CF04EC057E0A52EB12C98
:1018D000AC0EBD1E43E0B594A7944A95E1F7EE2403
:1018E000FF24CC24DD2437E0232E312C30C0CE0160
:1018F00023E0959587952A95E1F7D8015396ED91C8
:10190000FC915497EC0DFD1DE80FF91F408150E04C
:10191000CE0187709070F101E81BF90B02C055955C
:101920004795EA95E2F74170CE01860D971DB20109
:101930000E94C20A2196D80150968C9190E0C81757
:10194000D907ACF20894E11CF11CCA0CDB1CF801AD
:10195000818990E0E816F90634F4C0E0D0E0270170
:10196000480C591CE8CFDF91CF911F910F91FF9048
:10197000EF90DF90CF90BF90AF909F908F907F902F
:101980006F905F904F903F902F900895A1E1B0E04D
:10199000ECECFCE00C94F9113C017F876E876A0146
:1019A000FC0117821682838181FD03C06FEF7FEFF8
:1019B0006FC39E012F5F3F4F398B288BF30123812B
:1019C000EE85FF8523FD859123FF8191FF87EE87BB
:1019D000882309F45AC3853251F4EE85FF8523FD2F
:1019E000859123FF8191FF87EE87853229F490E06E
:1019F000B3010E949313E2CF982F10E0882499241A
:101A00001032B0F49B3269F09C3228F4903251F0DD
:101A1000933271F40BC09D3239F0903349F4116068
:101A200028C01260146025C0186023C0106121C056
:101A300017FD2AC0892F80538A3078F416FF06C01C
:101A4000FAE09F9E902C1124980E13C03AE0839EDA
:101A5000802C1124880E10620CC09E3221F416FDD9
:101A600014C3106406C09C3611F4106802C0983686
:101A700059F4EE85FF8523FD959123FF9191FF8712
:101A8000EE87992309F0BCCF892F8554833020F449
:101A9000812F8061905E07C0892F8556833008F0C2
:101AA0009FC1812F8F7E86FD02C076E0972E6FE367
:101AB000F62EF822953619F4F0E4FF2A07C0963680
:101AC00019F420E8F22A02C091109A94F7FE0AC095
:101AD0003BE3391518F45CE3B52E02C0B92CB3947E
:101AE00027E009C047E0491520F4BB2447E0942EC5
:101AF000F7CF292DBB24C60104969D878C87F6015C
:101B00006081718182819381AE014F5F5F4F0B2DA8
:101B10000E94A5126C010981202E332400FF04C00D
:101B200003FD02C01DE209C0F1FE02C01BE205C0B8
:101B3000F2FC02C010E001C010E2C1018C70907094
:101B4000892BB9F1112311F483E001C084E08815D9
:101B500010F088240AC0881AF3FC07C080E290E0E5
:101B6000B3010E9493138A94C9F7112329F0812F9E
:101B700090E0B3010E94931323FE03C00CE812E02F
:101B80000EC000E912E00BC0E114F10409F080522C
:101B900090E0B3010E9493130F5F1F4F05C0EF2C1D
:101BA000FF24F0E1EF22FF24F8018491882361F7FC
:101BB00014C1F7FE12C0BC0C24FE04C08A8181331C
:101BC00009F4BA941B141CF0BB24B3942DC0F8E0A4
:101BD000FB1550F538E0B32E27C0F6FC25C0892D43
:101BE00090E08C159D054CF02CEFC2162FEFD2061D
:101BF00024F030E8F32A01C09A94992049F0E2E0F9
:101C0000F0E0EC0FFD1FE90DF11D80818033A1F3A1
:101C1000F7FE0AC0B92CB394892D90E0C816D906F6
:101C200014F0992401C09C18F7FC03C025E030E0B3
:101C300009C01C141D041CF021E030E003C0960113
:101C40002F5F3F4F112311F02F5F3F4F992029F055
:101C5000892D90E00196280F391F882D90E02817D4
:101C6000390714F0882401C0821A4F2C5524C20170
:101C700089709070892B39F008C080E290E0B30140
:101C80000E9493138A948820C1F7112329F0812F91
:101C900090E0B3010E94931343FE07C008C080E3A5
:101CA00090E0B3010E9493138A948820C1F7F7FE55
:101CB00046C08601D7FE02C000E010E0760108941D
:101CC000E11CF11CE01AF10A41E050E04C0F5D1FED
:101CD000E40EF51E26014B185108892D90E0AA2428
:101CE000BB24A81AB90A5FEF0F3F150729F48EE24B
:101CF00090E0B3010E949313C016D10634F0401651
:101D000051061CF4F701808101C080E301501040AE
:101D10000894E11CF11C0A151B052CF090E0B3019E
:101D20000E949313E0CF0C151D0539F49A81963368
:101D300018F4953311F424FE81E390E04BC08A81BE
:101D4000813309F00F7E90E0B3010E949313992034
:101D5000A1F08EE290E0B3010E94931312E0E1E063
:101D6000F0E0EC0FFD1FE10FF11D1F5F808190E09F
:101D7000B3010E9493139A9491F744FC03C085E643
:101D800090E002C085E490E0B3010E949313D7FC79
:101D900005C0C114D10441F404FF06C0D094C1941D
:101DA000D108D3948DE201C08BE290E0B3010E9490
:101DB000931380E305C08F5F26EF3FEFC20ED31E63
:101DC0003AE0C316D104BCF790E0B3010E9493132C
:101DD000C601C096B3010E949313CC84DD8452C126
:101DE000933631F0933799F0933509F059C023C0F9
:101DF000F601808189835E010894A11CB11C22E058
:101E000030E0C20ED31E21E0E22EF12C12C0F6010A
:101E1000A080B18016FD03C06FEF7FEF02C0692D77
:101E200070E022E030E0C20ED31EC5010E9488138C
:101E30007C011F7713C0F601A080B18016FD03C09E
:101E40006FEF7FEF02C0692D70E022E030E0C20E3C
:101E5000D31EC5010E947D137C01106813FF07C0CB
:101E60001BC080E290E0B3010E9493138A94882DF6
:101E700090E0E816F906A8F30FC0F50117FD85916B
:101E800017FF81915F0190E0B3010E9493138110CD
:101E90008A940894E108F108E114F10471F7F2C0A2
:101EA000943611F0993689F517FF08C0F6012081A4
:101EB00031814281538184E090E00AC0F601808143
:101EC00091819C01442737FD4095542F82E090E09A
:101ED000C80ED91E9FE6F92EF12257FF09C0509572
:101EE0004095309521953F4F4F4F5F4F90E8F92A2D
:101EF000CA01B901AE014F5F5F4F2AE030E00E9496
:101F0000F013E82EE889EE1A41C0953721F41F7EC0
:101F10002AE030E01CC0197F9F3661F0903720F432
:101F2000983509F0B2C00FC0903739F0983709F0F2
:101F3000ACC004C028E030E00AC0106114FD146099
:101F400020E130E004C014FD166020E132E017FF0C
:101F500008C0F601608171818281938144E050E084
:101F600008C0F60180819181BC0180E090E042E0F0
:101F700050E0C40ED51EAE014F5F5F4F0E94F013BC
:101F8000E82E5889E51A8FE7F82EF122F6FE0BC0ED
:101F90008EEFF822E91438F4F4FE07C0F2FC05C015
:101FA0009FEEF92202C01E2D01C0192DF4FE0DC0B6
:101FB000FE01EE0DF11D8081803319F4E9EEFE2261
:101FC00008C01F5FF2FE05C003C08F2D867809F0A0
:101FD0001F5F0F2DF3FC14C0F0FE0FC0181510F09A
:101FE0009E2C0BC09E2C980C911A182D06C080E2D6
:101FF00090E0B3010E9493131F5F1815C0F304C053
:10200000181510F4811A01C0882404FF0FC080E362
:1020100090E0B3010E94931302FF1DC001FD03C0B5
:1020200088E790E00EC088E590E00BC0802F8678AE
:1020300091F001FF02C08BE201C080E2F7FC8DE26B
:1020400090E0B3010E94931306C080E390E0B301D7
:102050000E9493139A94E914C0F3EA94E1E0F0E04B
:10206000EC0FFD1FEE0DF11D808190E0B3010E9489
:102070009313EE2091F706C080E290E0B3010E9436
:1020800093138A948820C1F799CCF30166817781F4
:10209000CB016196E2E10C9415125058BB27AA2798
:1020A0000ED00DC1FED030F003D120F031F49F3FAF
:1020B00011F41EF4F3C00EF4E095E7FBE9C0E92F3C
:1020C0000FD180F3BA17620773078407950718F0DA
:1020D00071F49EF527C10EF4E0950B2EBA2FA02DBA
:1020E0000B01B90190010C01CA01A0011124FF27C5
:1020F000591B99F0593F50F4503E68F11A16F040C0
:10210000A22F232F342F4427585FF3CF46953795BE
:102110002795A795F0405395C9F77EF41F16BA0B83
:10212000620B730B840BBAF09150A1F0FF0FBB1F31
:10213000661F771F881FC2F70EC0BA0F621F731F7A
:10214000841F48F4879577956795B795F7959E3FD7
:1021500008F0B3CF9395880F08F09927EE0F979565
:102160008795089571D008F481E0089504D06894AB
:10217000B111D9C00895BCD088F09F5790F0B92F05
:102180009927B751A0F0D1F0660F771F881F991FCC
:102190001AF0BA95C9F712C0B13081F0C3D0B1E0DE
:1021A0000895C0C0672F782F8827B85F39F0B93FEE
:1021B000CCF3869577956795B395D9F73EF49095CE
:1021C0008095709561957F4F8F4F9F4F0895E8944C
:1021D00009C097FB3EF490958095709561957F4F6F
:1021E0008F4F9F4F9923A9F0F92F96E9BB2793951D
:1021F000F695879577956795B795F111F8CFFAF42D
:10220000BB0F11F460FF1BC06F5F7F4F8F4F9F4F5D
:1022100016C0882311F096E911C0772321F09EE8BB
:10222000872F762F05C0662371F096E8862F70E021
:1022300060E02AF09A95660F771F881FDAF7880FFB
:102240009695879597F90895990F0008550FAA0B51
:10225000E0E8FEEF16161706E807F907C0F01216B9
:102260001306E407F50798F0621B730B840B950BBC
:1022700039F40A2661F0232B242B252B21F4089511
:102280000A2609F4A140A6958FEF811D811D0895AE
:1022900097F99F6780E870E060E008959FEF80EC19
:1022A000089500240A9416161706180609060895BC
:1022B00000240A9412161306140605060895092E22
:1022C0000394000C11F4882352F0BB0F40F4BF2B91
:1022D00011F460FF04C06F5F7F4F8F4F9F4F0895D1
:1022E00057FD9058440F551F59F05F3F71F04795C7
:1022F000880F97FB991F61F09F3F79F087950895AC
:10230000121613061406551FF2CF4695F1DF08C0CA
:10231000161617061806991FF1CF869571056105E7
:1023200008940895E894BB2766277727CB0197F98F
:1023300008958ADF08F48FEF0895DADFE0F09E3722
:10234000D8F09639B8F49E3848F4672F782F88274C
:10235000985FF9CF86957795679593959539D0F3E2
:10236000B62FB1706B0F711D811D20F48795779585
:102370006795939502C01CC0D6CF882371F477234C
:1023800021F09850872B762F07C0662311F49927E8
:102390000DC09051862B70E060E02AF09A95660F90
:1023A000771F881FDAF7880F9695879597F9089514
:1023B0009F3F31F0915020F4879577956795B795B9
:1023C000880F911D9695879597F9089597FB092E8B
:1023D00007260AD077FD04D043D006D000201AF497
:1023E000709561957F4F0895F6F7909581959F4F71
:1023F00008952F923F924F925F926F927F928F92A9
:102400009F92AF92BF92CF92DF92EF92FF920F9383
:102410001F93CF93DF93CDB7DEB7CA1BDB0B0FB68D
:10242000F894DEBF0FBECDBF09942A88398848884A
:102430005F846E847D848C849B84AA84B984C884E0
:10244000DF80EE80FD800C811B81AA81B981CE0FD7
:10245000D11D0FB6F894DEBF0FBECDBFED010895BC
:10246000AA1BBB1B51E107C0AA1FBB1FA617B707BA
:1024700010F0A61BB70B881F991F5A95A9F78095D6
:102480009095BC01CD010895A0E0B0E0EAE4F2E14E
:102490000C940112EC01A880B980CA80DB80A114E1
:1024A000B104C104D10441F484E2A82E89EDB82E10
:1024B0008BE5C82E87E0D82EC601B5012DE133EF9C
:1024C00041E050E00E946D1427EA31E440E050E022
:1024D0000E944E147B018C01C601B5012DE133EF42
:1024E00041E050E00E946D14CA01B9012CEE34EFB6
:1024F0004FEF5FEF0E944E146E0D7F1D801F911FE6
:1025000097FF04C061507040804090486883798391
:102510008A839B839B013F77C901CDB7DEB7EAE091
:102520000C941D120E94441208958DE791E00E94C0
:1025300044120895A0E0B0E080937D0190937E0165
:10254000A0937F01B09380010895283008F027E020
:102550003327DA01990F311D87FD916000966105DF
:10256000710539F432602E5F3D9330E32A95E1F72F
:1025700008959F3F30F080387105610509F03C5F98
:102580003C5F3D93913008F08068911DDF93CF93BD
:102590001F930F93FF92EF92192F987F9695E92F33
:1025A00096959695E90FFF27E251FD4F992733271E
:1025B000EE24FF24A701E70105900894079428F46E
:1025C000360FE71EF81E491F511D660F771F881F23
:1025D000991F0694A1F70590079428F4E70EF81EBA
:1025E000491F561FC11D770F881F991F661F06942C
:1025F000A1F70590079428F4F80E491F561FC71F2E
:10260000D11D880F991F661F771F0694A1F70590AB
:10261000079420F4490F561FC71FD81F990F661F34
:10262000771F881F0694A9F784911095177041F0C1
:10263000D695C79557954795F794E7941A95C1F79E
:10264000E4E9F2E0689415901591359165919591C2
:1026500005907FE27395E118F10A430B560BC90B05
:10266000D009C0F7E10CF11E431F561FC91FD01D32
:102670007EF4703311F48A95E6CFE894015030F07F
:10268000080F0AF40027021708F4202F2395022FC1
:102690007A3328F079E37D932A95E9F710C07D938A
:1026A0002A9589F606949795679537951795179407
:1026B000E118F10A430B560BC90BD00998F023958A
:1026C0007E9173957A3308F070E37C932013B8F70A
:1026D0007E9170617D9330F0839571E37D9370E31B
:1026E0002A95E1F71124EF90FF900F911F91CF9160
:1026F000DF91992787FD90950895FC010590615021
:1027000070400110D8F7809590958E0F9F1F089507
:10271000FC016150704001900110D8F780959095B0
:102720008E0F9F1F08950F931F93CF93DF938C01FC
:10273000EB018B8181FF1BC082FF0DC02E813F8189
:102740008C819D812817390764F4E881F981019310
:10275000F983E88306C0E885F985802F0995892BE0
:1027600031F48E819F8101969F838E8302C00FEF8B
:102770001FEFC801DF91CF911F910F910895AEE037
:10278000B0E0E5ECF3E10C9407120D891E898F8906
:10279000988D97FF02C080E090E801979E838D831B
:1027A0001A83098386E08C839E01255E3F4FCE010C
:1027B0000196698D7A8DA9010E94C60C4D815E81BA
:1027C00057FD0AC02F813885421753070CF49A0130
:1027D000020F131FF80110822E96E4E00C942312CE
:1027E000FA01AA27283051F1203181F1E8946F9342
:1027F0006E7F6E5F7F4F8F4F9F4FAF4FB1E03ED0E8
:10280000B4E03CD0670F781F891F9A1FA11D680F85
:10281000791F8A1F911DA11D6A0F711D811D911DB8
:10282000A11D20D009F468943F912AE0269F11242D
:102830003019305D3193DEF6CF010895462F477091
:10284000405D4193B3E00FD0C9F7F6CF462F4F70EC
:10285000405D4A3318F0495D31FD4052419302D04A
:10286000A9F7EACFB4E0A6959795879577956795F0
:10287000BA95C9F700976105710508959B01AC01F0
:102880000A2E06945795479537952795BA95C9F717
:10289000620F731F841F951FA01D0895629FD001B2
:1028A000739FF001829FE00DF11D649FE00DF11D0B
:1028B000929FF00D839FF00D749FF00D659FF00DBA
:1028C0009927729FB00DE11DF91F639FB00DE11DA7
:1028D000F91FBD01CF011124089597FB092E05268C
:1028E0000ED057FD04D014D00AD0001C38F45095F7
:1028F0004095309521953F4F4F4F5F4F0895F6F724
:1029000090958095709561957F4F8F4F9F4F08955B
:10291000A1E21A2EAA1BBB1BFD010DC0AA1FBB1FE3
:10292000EE1FFF1FA217B307E407F50720F0A21B55
:10293000B30BE40BF50B661F771F881F991F1A94C2
:1029400069F760957095809590959B01AC01BD01EC
:08295000CF010895F894FFCFB8
:1029580047414D45204F564552004E393936383299
:10296800393600544845204845524F494320444F82
:102978004E5554004D4954434820464F5800536320
:102988006F72653A20256400466F6F64204C656657
:10299800743A202564004C697665733A20256400F2
:1029A800504155534544000A0005003333B33EDF18
:1029B8007FBFBFFFBFDFFFBF0C001800240030003F
:1029C8004800FFBFFFFFC0AA80FFFFFFFF01000014
:0229D8000000FD
:00000001FF